:0300000002089D56
:0C089D00787FE4F6D8FD7581110208E4B4
:0C0A1000020E000002080000020A0000B4
:10092900E4F51053D9BF1209DD120A30120A371241
:0D09390009C6120A271209AE1209F0D2AF4A
:10094600120A1D8F11E510700AE511B4DDF275105B
:100956000180EDE510B4010FE511B4DD0575100257
:1009660080DEE4F51080D9E510B40208851197758C
:0F097600100380CCE510B403C7851196E4F5108B
:0209850080BF31
:1009C600759810758D96538EF4858D8B53890F43CC
:0709D6008920D28ED2992284
:1009DD0075D40275E10175E24243A4C075A5FF43CC
:0309ED00A601223E
:070A300075B28375EF04228B
:070A370075D10375B9F2222D
:090A270043880575E406D2A822FB
:03000300020A03EB
:0D0A0300C0E0050FE50F7002050ED0E032D7
:1009AE00538E9F53C8FE75CBFF75CAE585CBCD859B
:0809BE00CACC75C804D2AD22B9
:03002B00020A3E88
:050A3E00B2A0C2CF329E
:1009F0007593B275929285939585929475910443FF
:030A0000E680226B
:0300730002080080
:10080000C0E0C0F0C083C082C0D075D000C000C0BE
:0D08100001C002C003C004C005C006C0073F
:10081D000509E50970020508640A45087054F508D4
:10082D00F509050BE50B7002050A640A450A700E01
:10083D00F50AF50B850E0C850F0DF50EF50F7FFFE7
:10084D001209877FFF120987E50CFF120987AF0D8B
:10085D00E50D120987E580F4640725E05402FFE5F4
:10086D0080F4640654014FFF120987E590F4FF12DE
:05087D00098753917F83
:10088200D007D006D005D004D003D002D001D000CA
:0B089200D0D0D082D083D0F0D0E03274
:1008A900020929E493A3F8E493A34003F68001F233
:1008B90008DFF48029E493A3F85407240CC8C33350
:1008C900C4540F4420C8834004F456800146F6DF1F
:1008D900E4800B0102040810204080900A10E47E95
:1008E900019360BCA3FF543F30E509541FFEE49314
:1008F900A360010ECF54C025E060A840B8E493A3DB
:10090900FAE493A3F8E493A3C8C582C8CAC583CA05
:10091900F0A3C8C582C8CAC583CADFE9DEE780BEBD
:010A1C0000D9
:10098700EFB40A07740D120992740A309811A899E6
:10099700B8130CC2983098FDA899C298B811F630D0
:0709A70099FDC299F59922A8
:0A0A1D003098FDAF99C2987E0022C8
:00000001FF
